S01A00004D6F76696E675F4361725F50726F6A6563742E73726563EF
S11300000C9431000C94EA030C9425040C943404ED
S11300100C9443000C94BF050C9443000C944300CF
S11300200C9443000C9443000C9443000C94430040
S11300300C9443000C9443000C9443000C94430030
S11300400C9443000C9443000C9443000C94430020
S11300500C94430064056F0585057A0590059B059E
S1130060A60511241FBECFE5D8E0DEBFCDBF20E03A
S1130070A0E6B0E001C01D92AE37B207E1F70E94DE
S1130080C9010C9452080C940000CF92DF92EF92B5
S1130090FF9220E030E048EC52E40E948306609333
S11300A07A0070937B0080937C0090937D0020E025
S11300B030E040E853E40E94DF076B017C01609369
S11300C06A0070936B0080936C0090936D009B01A9
S11300D0AC0160E070E080E893E40E94FA0560936C
S11300E06E0070936F008093700090937100C7014D
S11300F0B6010E94160588E00E94730160916E00AB
S113010070916F0080917000909171000E941605AB
S113011088E00E947C01FF90EF90DF90CF900895DB
S113012080E10E947C018CE49CE4909368008093BD
S113013067000E94960182E10E94730160E070E012
S113014080EF91E40E944500089580E10E947C01C3
S11301508CE49CE490936800809367000E9496016D
S113016081E10E94730160E070E088E492E40E94FF
S1130170450008958CE49CE49093680080936700A4
S11301800E94B801089581E10E947C0182E10E94ED
S11301907C0183E10E947C0180E10E9473018CE474
S11301A09CE490936800809367000E94B8010895CE
S11301B080E10E947C0189E09DE390936800809334
S11301C067000E94A70183E10E94730160E070E070
S11301D080E291E40E9445000895789488E00E94AA
S11301E06A018CE10E946A018DE10E946A018AE140
S11301F00E94610180E00E946D0368EB71E080E081
S11302000E94DB0360E080E00E947F038BE10E9498
S1130210610181E00E946D0360E081E00E947F0340
S113022080E10E946A0181E10E946A0182E10E94E8
S11302306A0183E10E946A010E9485010E94B3055C
S11302400895809160008130A9F58CE10E947301CA
S11302508DE10E947C0180916900811103C00E949C
S1130260BA000895813019F40E94A50008958230DF
S113027019F40E94C3000895833019F40E94D80031
S11302800895843019F40E94C3000895853019F448
S11302900E9490000895863019F40E94C3000895C6
S11302A0873019F40E94D8000895883049F40E94D8
S11302B0C30008958CE10E947C018DE10E947301CA
S11302C00895883228F462E00E94CE0180E0089507
S11302D081E00895883228F460E00E94CE0180E035
S11302E0089581E00895883228F461E00E94D002E4
S11302F080E0089581E00895883228F460E00E9447
S1130300D00280E0089581E0089560E080E00E94DA
S1130310CE0160E081E00E94CE0160E082E00E94B4
S1130320CE0160E083E00E94CE01089560E080E0A9
S11303300E94D00261E081E00E94D00260E082E08D
S11303400E94D00261E083E00E94D002089560E040
S113035080E00E94D00260E081E00E94D00260E070
S113036082E00E94D00261E083E00E94D0020895FE
S113037060E080E00E94D00260E081E00E94D00250
S113038060E082E00E94D00260E083E00E94D0023C
S113039008950E94ED000E942101FDCF982F9695AB
S11303A096959695953008F0F9C08770613031F0D4
S11303B008F4A4C0623009F451C0EFC09130C1F018
S11303C028F0923039F19330B9F1E7C04AB321E013
S11303D030E0B90102C0660F771F8A95E2F7CB01BE
S11303E08095942F98239ABB9BB389238BBBD5C04C
S11303F047B321E030E0B90102C0660F771F8A9548
S1130400E2F7CB018095942F982397BB98B3892367
S113041088BBC3C044B321E030E0B90102C0660F19
S1130420771F8A95E2F7CB018095942F982394BB8C
S113043095B3892385BBB1C041B321E030E0B90154
S113044002C0660F771F8A95E2F7CB018095942F3F
S1130450982391BB92B3892382BB9FC09130C1F092
S113046028F0923039F19330B9F197C04AB321E0C2
S113047030E0B90102C0660F771F8A95E2F7CB011D
S1130480962F909594239ABB9BB3892B8BBB85C0E5
S113049047B321E030E0B90102C0660F771F8A95A7
S11304A0E2F7CB01962F9095942397BB98B3892BB1
S11304B088BB73C044B321E030E0B90102C0660FC9
S11304C0771F8A95E2F7CB01962F9095942394BBDE
S11304D095B3892B85BB61C041B321E030E0B901FC
S11304E002C0660F771F8A95E2F7CB01962F90958D
S11304F0942391BB92B3892B82BB4FC09130C1F03E
S113050028F0923039F19330B9F147C04BB321E070
S113051030E0B90102C0660F771F8A95E2F7CB017C
S1130520962F909594239BBB9AB3892B8ABB35C095
S113053048B321E030E0B90102C0660F771F8A9505
S1130540E2F7CB01962F9095942398BB97B3892B10
S113055087BB23C045B321E030E0B90102C0660F78
S1130560771F8A95E2F7CB01962F9095942395BB3C
S113057094B3892B84BB11C042B321E030E0B901AC
S113058002C0660F771F8A95E2F7CB01962F9095EC
S1130590942392BB91B3892B81BB089582E0089583
S11305A0982F969596959695953008F08EC0633061
S11305B008F08DC08770613009F040C09130A1F01F
S11305C028F09230F9F0933059F183C04BB321E015
S11305D030E0B90102C0660F771F8A95E2F7CB01BC
S11305E0842B8BBB80E0089548B321E030E0B9014F
S11305F002C0660F771F8A95E2F7CB01842B88BB74
S113060080E0089545B321E030E0B90102C0660FEF
S1130610771F8A95E2F7CB01842B85BB80E0089590
S113062042B321E030E0B90102C0660F771F8A951A
S1130630E2F7CB01842B82BB80E00895611144C0B2
S11306409130A9F028F0923009F1933071F143C050
S11306504BB321E030E0B90102C0660F771F8A95E1
S1130660E2F7CB01809584238BBB80E0089548B3E7
S113067021E030E0B90102C0660F771F8A95E2F7E6
S1130680CB018095842388BB80E0089545B321E0A5
S113069030E0B90102C0660F771F8A95E2F7CB01FB
S11306A08095842385BB80E0089542B321E030E047
S11306B0B90102C0660F771F8A95E2F7CB018095D6
S11306C0842382BB80E00895089582E0089583E046
S11306D0089580E0089580E00895813041F018F095
S11306E0823049F008958BB780648BBF08958BB72F
S11306F080688BBF08958BB780628BBF089581306B
S113070049F120F0823009F449C00895613069F05C
S113071028F0623089F06330B1F0089585B78E7F98
S113072085BF85B78D7F85BF089585B7816085BFF7
S113073085B78D7F85BF089585B78E7F85BF85B7C3
S1130740826085BF089585B7816085BF85B7826063
S113075085BF0895613069F028F0623089F0633014
S1130760B1F0089585B78B7F85BF85B7877F85BF37
S1130770089585B7846085BF85B7877F85BF089551
S113078085B78B7F85BF85B7886085BF089585B79A
S1130790846085BF85B7886085BF0895623019F08D
S11307A0633029F0089584B78F7B84BF089584B79C
S11307B0806484BF0895882319F0823051F405C001
S11307C07093640060936300089570936200609373
S11307D0610008951F920F920FB60F9211242F9368
S11307E03F934F935F936F937F938F939F93AF93B5
S11307F0BF93EF93FF9310926000E0916300F09138
S11308006400309789F0099560E080E10E94D0028D
S113081060E081E10E94D00260E082E10E94D002A7
S113082060E083E10E94D002FF91EF91BF91AF910C
S11308309F918F917F916F915F914F913F912F91F4
S11308400F900FBE0F901F9018951F920F920FB626
S11308500F9211248F9381E0809360008F910F9009
S11308600FBE0F901F9018951F920F920FB60F9204
S113087011242F933F934F935F936F937F938F93A1
S11308809F93AF93BF93EF93FF93E0916100F09137
S11308906200309709F00995FF91EF91BF91AF91F4
S11308A09F918F917F916F915F914F913F912F9184
S11308B00F900FBE0F901F9018958130F1F028F023
S11308C0823099F0833049F020C083B78F7B83BF97
S11308D083B7877F83BF84E0089583B7806483BF31
S11308E083B7877F83BF84E0089583B78F7B83BFFB
S11308F083B7886083BF84E0089583B7806483BF2F
S113090083B7886083BF84E0089581E008958230CE
S113091009F128F4882341F0813089F03CC0853006
S113092021F1863069F137C083B7816083BF83B713
S11309308D7F83BF83B78B7F83BF84E0089583B7A4
S1130940826083BF83B78E7F83BF83B78B7F83BF70
S113095084E0089583B7816083BF83B7826083BFD7
S113096083B78B7F83BF84E0089583B7846083BF9C
S113097083B78D7F83BF83B78E7F83BF84E0089561
S113098083B7816083BF83B78D7F83BF83B7846060
S113099083BF84E0089580E008958F929F92AF9280
S11309A0BF92CF92DF92EF92FF924B015C0120E065
S11309B030E0A9010E94DA071816ECF4C12CD12CFE
S11309C0760108B600FEFDCF88B7816088BF20E0BD
S11309D030E040E85FE3C701B6010E94FB056B010C
S11309E07C019B01AC01C501B4010E94DA07181611
S11309F044F384E012C020E030E0A901C501B40151
S1130A000E947E06181644F008B600FEFDCF88B793
S1130A10816088BF84E001C082E0FF90EF90DF90A6
S1130A20CF90BF90AF909F908F900895CF930E94E6
S1130A3067060E94F506C62F80E00E945D04C2BFCF
S1130A4086E00E94870460E070E080E89FE30E94F3
S1130A50CD0413BE12BE88B7816088BFCF910895BC
S1130A608130F1F028F0823099F0833049F020C0D1
S1130A7085B58F7B85BD85B5877F85BD84E0089569
S1130A8085B5806485BD85B5877F85BD84E008957F
S1130A9085B58F7B85BD85B5886085BD84E0089567
S1130AA085B5806485BD85B5886085BD84E008957D
S1130AB081E0089590E08730910508F052C0FC0170
S1130AC0E65DFF4F0C944C0885B5816085BD85B506
S1130AD08D7F85BD85B58B7F85BD84E0089585B503
S1130AE0826085BD85B58E7F85BD85B58B7F85BDCF
S1130AF084E0089585B5816085BD85B5826085BD36
S1130B0085B58B7F85BD84E0089585B5846085BDFA
S1130B1085B58D7F85BD85B58E7F85BD84E00895BF
S1130B2085B5816085BD85B58D7F85BD85B58460BE
S1130B3085BD84E0089585B5846085BD85B58E7FC7
S1130B4085BD85B5826085BD84E0089585B58160E5
S1130B5085BD85B5826085BD85B5846085BD84E02D
S1130B60089580E00895789489B7806489BF80E00F
S1130B700E94300514BC80E00E945A0508951F921B
S1130B800F920FB60F9211242F933F938F939F933D
S1130B9080916000813029F5809165009091660014
S1130BA020916700309168008217930734F401960E
S1130BB0909366008093650014C08217930789F4AC
S1130BC0892B79F01092660010926500809169007B
S1130BD0883020F48F5F8093690003C081E08093A4
S1130BE069009F918F913F912F910F900FBE0F90AD
S1130BF01F9018955058BB27AA270E9412060C94E0
S1130C0088070E947A0738F00E94810720F039F49F
S1130C109F3F19F426F40C9477070EF4E095E7FB54
S1130C200C944807E92F0E94990758F3BA176207F2
S1130C3073078407950720F079F4A6F50C94D3077D
S1130C400EF4E0950B2EBA2FA02D0B01B9019001E3
S1130C500C01CA01A0011124FF27591B99F0593F27
S1130C6050F4503E68F11A16F040A22F232F342F6F
S1130C704427585FF3CF469537952795A795F040BD
S1130C805395C9F77EF41F16BA0B620B730B840BD2
S1130C90BAF09150A1F0FF0FBB1F661F771F881F8A
S1130CA0C2F70EC0BA0F621F731F841F48F48795E2
S1130CB077956795B795F7959E3F08F0B0CF9395D4
S1130CC0880F08F09927EE0F9795879508950E944D
S1130CD0BB0790F09F3748F4911116F40C94D40795
S1130CE060E070E080E89FE3089526F01B16611D24
S1130CF0711D811D0C944E070C9469070E942407F2
S1130D0008F481E008950E9497060C9488070E94D5
S1130D10810758F00E947A0740F029F45F3F29F0D8
S1130D200C94480751110C94D4070C9477070E9433
S1130D30990768F39923B1F3552391F3951B550B48
S1130D40BB27AA2762177307840738F09F5F5F4F9A
S1130D50220F331F441FAA1FA9F335D00E2E3AF0D9
S1130D60E0E832D091505040E695001CCAF72BD0F1
S1130D70FE2F29D0660F771F881FBB1F2617370742
S1130D804807AB07B0E809F0BB0B802DBF01FF2774
S1130D9093585F4F3AF09E3F510578F00C94480702
S1130DA00C94D4075F3FE4F3983ED4F3869577958B
S1130DB06795B795F7959F5FC9F7880F911D96952D
S1130DC0879597F90895E1E0660F771F881FBB1F89
S1130DD0621773078407BA0720F0621B730B840B36
S1130DE0BA0BEE1F88F7E09508950E94A10788F0DA
S1130DF09F5798F0B92F9927B751B0F0E1F0660FDB
S1130E00771F881F991F1AF0BA95C9F714C0B1301B
S1130E1091F00E94D307B1E008950C94D307672F93
S1130E20782F8827B85F39F0B93FCCF3869577954A
S1130E306795B395D9F73EF4909580957095619533
S1130E407F4F8F4F9F4F0895990F0008550FAA0B9E
S1130E50E0E8FEEF16161706E807F907C0F01216C9
S1130E601306E407F50798F0621B730B840B950BCC
S1130E7039F40A2661F0232B242B252B21F4089521
S1130E800A2609F4A140A6958FEF811D811D0895BE
S1130E9097F99F6780E870E060E00895882371F413
S1130EA0772321F09850872B762F07C0662311F4FF
S1130EB099270DC09051862B70E060E02AF09A9536
S1130EC0660F771F881FDAF7880F9695879597F92D
S1130ED008959F3F31F0915020F487957795679559
S1130EE0B795880F911D9695879597F908959FEF6B
S1130EF080EC089500240A941616170618060906AD
S1130F00089500240A94121613061406050608957B
S1130F10092E0394000C11F4882352F0BB0F40F403
S1130F20BF2B11F460FF04C06F5F7F4F8F4F9F4F43
S1130F30089557FD9058440F551F59F05F3F71F0C5
S1130F404795880F97FB991F61F09F3F79F087952C
S1130F500895121613061406551FF2CF4695F1DFB5
S1130F6008C0161617061806991FF1CF8695710545
S1130F706105089408950E94A107A0F0BEE7B9177F
S1130F8088F4BB279F3860F41616B11D672F782F9D
S1130F908827985FF7CF869577956795B11D9395C8
S1130FA09639C8F30895E894BB2766277727CB01C1
S1130FB097F908950E94240708F48FEF08950E947A
S1130FC0F2070C9488070E947A0738F00E94810780
S1130FD020F0952311F00C9448070C947707112402
S1130FE00C94D4070E94990770F3959FC1F3950F51
S1130FF050E0551F629FF001729FBB27F00DB11D99
S1131000639FAA27F00DB11DAA1F649F6627B00D28
S1131010A11D661F829F2227B00DA11D621F739F11
S1131020B00DA11D621F839FA00D611D221F749F1F
S11310303327A00D611D231F849F600D211D822F66
S1131040762F6A2F11249F5750409AF0F1F088238D
S11310504AF0EE0FFF1FBB1F661F771F881F9150BA
S11310605040A9F79E3F510580F00C9448070C941A
S1131070D4075F3FE4F3983ED4F38695779567955C
S1131080B795F795E7959F5FC1F7FE2B880F911DE4
S11310909695879597F90895EE0FFF1F0590F491A3
S10B10A0E02D0994F894FFCF40
S9030000FC
