S01A00004D6F76696E675F4361725F50726F6A6563742E73726563EF
S11300000C9431000C94C3030C94EE030C941B0465
S11300100C9443000C94F4040C9443000C9443009B
S11300200C9443000C9443000C9443000C94430040
S11300300C9443000C9443000C9443000C94430030
S11300400C9443000C9443000C9443000C94430020
S11300500C9443009904A404BA04AF04C504D00466
S1130060DB0411241FBECFE5D8E0DEBFCDBF20E006
S1130070A0E6B0E001C01D92A837B207E1F70E94E4
S11300809A010C9453070C940000CF92DF92EF92E4
S1130090FF9220E030E048EC52E40E94AD0560930A
S11300A0730070937400809375009093760020E041
S11300B030E040E853E40E94E0066B017C01609369
S11300C06B0070936C0080936D0090936E009B01A5
S11300D0AC0160E070E080E893E40E94290560933D
S11300E06F00709370008093710090937200C70149
S11300F0B6010E94480488E00E94250160916F00C7
S11301007091700080917100909172000E94480477
S113011088E00E942E01FF90EF90DF90CF90089529
S11301208CE49CE4909369008093680082E10E94CF
S1130130250160E070E080EF91E40E94450008959D
S11301408CE49CE490936900809368000E945801B9
S113015081E10E94250160E070E088E492E40E945D
S1130160450008958CE49CE49093690080936800B2
S11301700E947901089578948AE10E94130180E035
S11301800E94400369E771E080E00E94AE0360E0F2
S113019080E00E94520381E08093770088E00E940F
S11301A01C0181E10E941C0182E10E941C0183E187
S11301B00E941C010E9437010895809177008130CC
S11301C079F580916A00811103C00E94B2000895FC
S11301D0813019F40E94A0000895823069F48CE4FF
S11301E09CE4909369008093680081E10E942E0151
S11301F083E10E9425010895833019F40E94900040
S11302000895843079F48CE49CE49093690080939D
S1130210680082E10E942E0183E10E942501089575
S11302200E9479010895883228F462E00E94A101B5
S113023080E0089581E00895883228F460E00E9407
S1130240A10180E0089581E00895883228F461E0F6
S11302500E94A30280E0089581E00895883228F482
S113026060E00E94A30280E0089581E0089560E0C8
S113027080E00E94A10160E081E00E94A10160E0B1
S113028082E00E94A10160E083E00E94A10160E09D
S113029084E00E94A10160E085E00E94A10160E089
S11302A086E00E94A10160E087E00E94A101089518
S11302B060E080E00E94A30261E081E00E94A3026A
S11302C060E082E00E94A30261E083E00E94A30256
S11302D061E084E00E94A30260E085E00E94A30242
S11302E061E086E00E94A30260E087E00E94A3022E
S11302F0089560E080E00E94A30260E081E00E9433
S1130300A30260E082E00E94A30260E083E00E9416
S1130310A30260E084E00E94A30260E085E00E9402
S1130320A30260E086E00E94A30260E087E00E94EE
S1130330A30208950E94BB000E94E8040E94DD000D
S1130340FDCF982F969596959695953008F0F9C01F
S11303508770613031F008F4A4C0623009F451C0F0
S1130360EFC09130C1F028F0923039F19330B9F1F7
S1130370E7C04AB321E030E0B90102C0660F771F3D
S11303808A95E2F7CB018095942F98239ABB9BB36F
S113039089238BBBD5C047B321E030E0B90102C04B
S11303A0660F771F8A95E2F7CB018095942F9823E7
S11303B097BB98B3892388BBC3C044B321E030E022
S11303C0B90102C0660F771F8A95E2F7CB018095C9
S11303D0942F982394BB95B3892385BBB1C041B3B3
S11303E021E030E0B90102C0660F771F8A95E2F779
S11303F0CB018095942F982391BB92B3892382BB20
S11304009FC09130C1F028F0923039F19330B9F1A6
S113041097C04AB321E030E0B90102C0660F771FEC
S11304208A95E2F7CB01962F909594239ABB9BB3C0
S1130430892B8BBB85C047B321E030E0B90102C0F2
S1130440660F771F8A95E2F7CB01962F9095942338
S113045097BB98B3892B88BB73C044B321E030E0C9
S1130460B90102C0660F771F8A95E2F7CB01962F78
S11304709095942394BB95B3892B85BB61C041B3FC
S113048021E030E0B90102C0660F771F8A95E2F7D8
S1130490CB01962F9095942391BB92B3892B82BB69
S11304A04FC09130C1F028F0923039F19330B9F156
S11304B047C04BB321E030E0B90102C0660F771F9B
S11304C08A95E2F7CB01962F909594239BBB9AB320
S11304D0892B8ABB35C048B321E030E0B90102C0A2
S11304E0660F771F8A95E2F7CB01962F9095942398
S11304F098BB97B3892B87BB23C045B321E030E079
S1130500B90102C0660F771F8A95E2F7CB01962FD7
S11305109095942395BB94B3892B84BB11C042B3AB
S113052021E030E0B90102C0660F771F8A95E2F737
S1130530CB01962F9095942392BB91B3892B81BBC9
S1130540089582E00895982F9695969596959530FE
S113055008F08EC0633008F08DC08770613009F0F8
S113056040C09130A1F028F09230F9F0933059F165
S113057083C04BB321E030E0B90102C0660F771F9E
S11305808A95E2F7CB01842B8BBB80E0089548B3B6
S113059021E030E0B90102C0660F771F8A95E2F7C7
S11305A0CB01842B88BB80E0089545B321E030E083
S11305B0B90102C0660F771F8A95E2F7CB01842B3D
S11305C085BB80E0089542B321E030E0B90102C068
S11305D0660F771F8A95E2F7CB01842B82BB80E0FC
S11305E00895611144C09130A9F028F0923009F1C6
S11305F0933071F143C04BB321E030E0B90102C044
S1130600660F771F8A95E2F7CB01809584238BBB15
S113061080E0089548B321E030E0B90102C0660FDC
S1130620771F8A95E2F7CB018095842388BB80E00D
S1130630089545B321E030E0B90102C0660F771F89
S11306408A95E2F7CB018095842385BB80E00895E9
S113065042B321E030E0B90102C0660F771F8A95EA
S1130660E2F7CB018095842382BB80E0089508954E
S113067082E0089583E0089580E0089580E008957D
S1130680813041F018F0823049F008958BB78064CE
S11306908BBF08958BB780688BBF08958BB780623A
S11306A08BBF0895813049F120F0823009F449C0AC
S11306B00895613069F028F0623089F06330B1F058
S11306C0089585B78E7F85BF85B78D7F85BF0895D3
S11306D085B7816085BF85B78D7F85BF089585B750
S11306E08E7F85BF85B7826085BF089585B7816099
S11306F085BF85B7826085BF0895613069F028F0B1
S1130700623089F06330B1F0089585B78B7F85BF7F
S113071085B7877F85BF089585B7846085BF85B712
S1130720877F85BF089585B78B7F85BF85B7886030
S113073085BF089585B7846085BF85B7886085BF08
S11307400895623019F0633029F0089584B78F7BDF
S113075084BF089584B7806484BF0895813049F0CC
S113076018F0823059F00895709365006093640026
S1130770089570936300609362000895709361001C
S11307806093600008951F920F920FB60F92112488
S11307902F933F934F935F936F937F938F939F9385
S11307A0AF93BF93EF93FF93E0916400F0916500E2
S11307B0309719F0099510927700FF91EF91BF914E
S11307C0AF919F918F917F916F915F914F913F91E5
S11307D02F910F900FBE0F901F9018951F920F929C
S11307E00FB60F9211242F933F934F935F936F9300
S11307F07F938F939F93AF93BF93EF93FF938091D6
S1130800640090916500892B29F0E0916200F091D9
S113081063000995FF91EF91BF91AF919F918F91E3
S11308207F916F915F914F913F912F910F900FBEE8
S11308300F901F9018951F920F920FB60F921124CC
S11308402F933F934F935F936F937F938F939F93D4
S1130850AF93BF93EF93FF938091640090916500F1
S1130860892B29F0E0916000F09161000995FF91D6
S1130870EF91BF91AF919F918F917F916F915F9114
S11308804F913F912F910F900FBE0F901F9018958D
S11308900E9496050E941F0683B78F7B83BF83B790
S11308A0877F83BF62BF83B7816083BF83B78D7F38
S11308B083BF83B7846083BF08B600FEFDCF13BE39
S11308C012BE88B7816088BF08958130F1F028F0A6
S11308D0823099F0833049F020C085B58F7B85BD87
S11308E085B5877F85BD84E0089585B5806485BD21
S11308F085B5877F85BD84E0089585B58F7B85BDEB
S113090085B5886085BD84E0089585B5806485BD1E
S113091085B5886085BD84E0089581E0089590E000
S11309208730910508F052C0FC01E65DFF4F0C943E
S11309304D0785B5816085BD85B58D7F85BD85B540
S11309408B7F85BD84E0089585B5826085BD85B5BE
S11309508E7F85BD85B58B7F85BD84E0089585B583
S1130960816085BD85B5826085BD85B58B7F85BD7C
S113097084E0089585B5846085BD85B58D7F85BD8A
S113098085B58E7F85BD84E0089585B5816085BD7C
S113099085B58D7F85BD85B5846085BD84E008956A
S11309A085B5846085BD85B58E7F85BD85B582603E
S11309B085BD84E0089585B5816085BD85B5826077
S11309C085BD85B5846085BD84E0089580E0089583
S11309D0789489B7806489BF80E00E94650414BC60
S11309E080E00E948F0408951F920F920FB60F9219
S11309F011242F933F938F939F938091660090913E
S1130A00670020916800309169008217930734F4DD
S1130A100196909367008093660012C08217930733
S1130A2079F4109267001092660080916A00843015
S1130A3020F48F5F80936A0003C081E080936A0092
S1130A409F918F913F912F910F900FBE0F901F9008
S1130A5018955058BB27AA270E9441050C948E066E
S1130A600E94800638F00E94870620F039F49F3FE8
S1130A7019F426F40C947D060EF4E095E7FB0C942F
S1130A804E06E92F0E949F0658F3BA1762077307B0
S1130A908407950720F079F4A6F50C94D9060EF492
S1130AA0E0950B2EBA2FA02D0B01B90190010C017A
S1130AB0CA01A0011124FF27591B99F0593F50F492
S1130AC0503E68F11A16F040A22F232F342F4427EA
S1130AD0585FF3CF469537952795A795F0405395E2
S1130AE0C9F77EF41F16BA0B620B730B840BBAF0B2
S1130AF09150A1F0FF0FBB1F661F771F881FC2F71D
S1130B000EC0BA0F621F731F841F48F48795779530
S1130B106795B795F7959E3F08F0B0CF9395880FEA
S1130B2008F09927EE0F9795879508950E94C106BE
S1130B3090F09F3748F4911116F40C94DA0660E0B3
S1130B4070E080E89FE3089526F01B16611D711D77
S1130B50811D0C9454060C946F060E94C1050C94DC
S1130B608E060E94870658F00E94800640F029F401
S1130B705F3F29F00C944E0651110C94DA060C9444
S1130B807D060E949F0668F39923B1F3552391F3E0
S1130B90951B550BBB27AA2762177307840738F0E8
S1130BA09F5F5F4F220F331F441FAA1FA9F335D045
S1130BB00E2E3AF0E0E832D091505040E695001CF9
S1130BC0CAF72BD0FE2F29D0660F771F881FBB1FB3
S1130BD0261737074807AB07B0E809F0BB0B802D91
S1130BE0BF01FF2793585F4F3AF09E3F510578F0BD
S1130BF00C944E060C94DA065F3FE4F3983ED4F36B
S1130C00869577956795B795F7959F5FC9F7880F90
S1130C10911D9695879597F90895E1E0660F771FE2
S1130C20881FBB1F621773078407BA0720F0621B73
S1130C30730B840BBA0BEE1F88F7E09508950E949E
S1130C40A70688F09F5798F0B92F9927B751B0F0AD
S1130C50E1F0660F771F881F991F1AF0BA95C9F73C
S1130C6014C0B13091F00E94D906B1E008950C94FB
S1130C70D906672F782F8827B85F39F0B93FCCF3AE
S1130C80869577956795B395D9F73EF490958095B9
S1130C90709561957F4F8F4F9F4F089597F99F6788
S1130CA080E870E060E00895882371F4772321F0F0
S1130CB09850872B762F07C0662311F499270DC00F
S1130CC09051862B70E060E02AF09A95660F771FAA
S1130CD0881FDAF7880F9695879597F908959F3FAF
S1130CE031F0915020F4879577956795B795880FE3
S1130CF0911D9695879597F908959FEF80EC089537
S1130D0000240A94161617061806090608950024E6
S1130D100A9412161306140605060895092E039460
S1130D20000C11F4882352F0BB0F40F4BF2B11F4D4
S1130D3060FF04C06F5F7F4F8F4F9F4F089557FD33
S1130D409058440F551F59F05F3F71F04795880F35
S1130D5097FB991F61F09F3F79F0879508951216CC
S1130D6013061406551FF2CF4695F1DF08C0161678
S1130D7017061806991FF1CF869571056105089429
S1130D8008950E94A706A0F0BEE7B91788F4BB2710
S1130D909F3860F41616B11D672F782F8827985F47
S1130DA0F7CF869577956795B11D93959639C8F3D6
S1130DB00895E894BB2766277727CB0197F9089510
S1130DC00E94F3060C948E060E94800638F00E945E
S1130DD0870620F0952311F00C944E060C947D06A2
S1130DE011240C94DA060E949F0670F3959FC1F3B8
S1130DF0950F50E0551F629FF001729FBB27F00DC5
S1130E00B11D639FAA27F00DB11DAA1F649F662719
S1130E10B00DA11D661F829F2227B00DA11D621F68
S1130E20739FB00DA11D621F839FA00D611D221F22
S1130E30749F3327A00D611D231F849F600D211D06
S1130E40822F762F6A2F11249F5750409AF0F1F089
S1130E5088234AF0EE0FFF1FBB1F661F771F881FF2
S1130E6091505040A9F79E3F510580F00C944E06D6
S1130E700C94DA065F3FE4F3983ED4F386957795B5
S1130E806795B795F795E7959F5FC1F7FE2B880F98
S1130E90911D9695879597F90895EE0FFF1F05907C
S10D0EA0F491E02D0994F894FFCFBB
S9030000FC
