S01A00004D6F76696E675F4361725F50726F6A6563742E73726563EF
S11300000C9431000C9417030C9440030C946D036E
S11300100C9443000C9446040C9443000C94430049
S11300200C9443000C9443000C9443000C94430040
S11300300C9443000C9443000C9443000C94430030
S11300400C9443000C9443000C9443000C94430020
S11300500C944300EB03F6030C040104170422047C
S11300602D0411241FBECFE5D8E0DEBFCDBF20E0B4
S1130070A0E6B0E001C01D92A737B207E1F70E94E5
S113008071010C94A5060C940000CF92DF92EF92BC
S1130090FF9220E030E048EC52E40E94FF046093B9
S11300A0730070937400809375009093760020E041
S11300B030E040E853E40E9432066B017C01609317
S11300C06B0070936C0080936D0090936E009B01A5
S11300D0AC0160E070E080E893E40E947B046093EC
S11300E06F00709370008093710090937200C70149
S11300F0B6010E949A0388E00E94FC0060916F00A0
S11301007091700080917100909172000E949A0326
S113011088E00E940501FF90EF90DF90CF90089552
S11301208CE49CE4909369008093680082E10E94CF
S1130130FC0060E070E080EF91E40E9445000895C7
S11301408CE49CE490936900809368000E942F01E2
S113015081E10E94FC0060E070E088E492E40E9487
S1130160450008958CE49CE49093690080936800B2
S11301700E945001089588E00E94F30081E10E94EA
S1130180F30082E10E94F3008BE00E94F3000E94DE
S11301900E01089580916A00811103C00E94B2008B
S11301A00895813019F40E94A0000895823051F41A
S11301B08CE49CE4909369008093680081E10E9440
S11301C005010895833019F40E9490000895843045
S11301D049F48CE49CE4909369008093680082E184
S11301E00E9405010895883228F460E00E94780195
S11301F080E0089581E00895883228F461E00E9447
S11302007A0280E0089581E00895883228F460E05D
S11302100E947A0280E0089581E0089560E080E021
S11302200E94780160E081E00E94780160E082E051
S11302300E94780160E083E00E94780160E084E03D
S11302400E94780160E085E00E94780160E086E029
S11302500E94780160E087E00E947801089560E0E0
S113026080E00E947A0261E081E00E947A0260E00C
S113027082E00E947A0261E083E00E947A0261E0F7
S113028084E00E947A0260E085E00E947A0261E0E4
S113029086E00E947A0260E087E00E947A02089574
S11302A060E080E00E947A0260E081E00E947A02CD
S11302B060E082E00E947A0260E083E00E947A02B9
S11302C060E084E00E947A0260E085E00E947A02A5
S11302D060E086E00E947A0260E087E00E947A0291
S11302E008950E94BB000E943A040E94CA00FDCFF8
S11302F0982F969596959695953008F0F9C0877045
S1130300613031F008F4A4C0623009F451C0EFC088
S11303109130C1F028F0923039F19330B9F1E7C04F
S11303204AB321E030E0B90102C0660F771F8A9515
S1130330E2F7CB018095942F98239ABB9BB3892332
S11303408BBBD5C047B321E030E0B90102C0660FD2
S1130350771F8A95E2F7CB018095942F982397BB5A
S113036098B3892388BBC3C044B321E030E0B9010A
S113037002C0660F771F8A95E2F7CB018095942F10
S1130380982394BB95B3892385BBB1C041B321E0C5
S113039030E0B90102C0660F771F8A95E2F7CB01FE
S11303A08095942F982391BB92B3892382BB9FC0DD
S11303B09130C1F028F0923039F19330B9F197C0FF
S11303C04AB321E030E0B90102C0660F771F8A9575
S11303D0E2F7CB01962F909594239ABB9BB3892B7C
S11303E08BBB85C047B321E030E0B90102C0660F82
S11303F0771F8A95E2F7CB01962F9095942397BBAC
S113040098B3892B88BB73C044B321E030E0B901B1
S113041002C0660F771F8A95E2F7CB01962F90955D
S1130420942394BB95B3892B85BB61C041B321E070
S113043030E0B90102C0660F771F8A95E2F7CB015D
S1130440962F9095942391BB92B3892B82BB4FC076
S11304509130C1F028F0923039F19330B9F147C0AE
S11304604BB321E030E0B90102C0660F771F8A95D3
S1130470E2F7CB01962F909594239BBB9AB3892BDB
S11304808ABB35C048B321E030E0B90102C0660F31
S1130490771F8A95E2F7CB01962F9095942398BB0A
S11304A097B3892B87BB23C045B321E030E0B90162
S11304B002C0660F771F8A95E2F7CB01962F9095BD
S11304C0942395BB94B3892B84BB11C042B321E020
S11304D030E0B90102C0660F771F8A95E2F7CB01BD
S11304E0962F9095942392BB91B3892B81BB089549
S11304F082E00895982F969596959695953008F0F4
S11305008EC0633008F08DC08770613009F040C040
S11305109130A1F028F09230F9F0933059F183C072
S11305204BB321E030E0B90102C0660F771F8A9512
S1130530E2F7CB01842B8BBB80E0089548B321E024
S113054030E0B90102C0660F771F8A95E2F7CB014C
S1130550842B88BB80E0089545B321E030E0B901E5
S113056002C0660F771F8A95E2F7CB01842B85BB07
S113057080E0089542B321E030E0B90102C0660F83
S1130580771F8A95E2F7CB01842B82BB80E0089524
S1130590611144C09130A9F028F0923009F19330F0
S11305A071F143C04BB321E030E0B90102C0660FE2
S11305B0771F8A95E2F7CB01809584238BBB80E07B
S11305C0089548B321E030E0B90102C0660F771FF7
S11305D08A95E2F7CB018095842388BB80E0089557
S11305E045B321E030E0B90102C0660F771F8A9558
S11305F0E2F7CB018095842385BB80E0089542B364
S113060021E030E0B90102C0660F771F8A95E2F756
S1130610CB018095842382BB80E00895089582E015
S1130620089583E0089580E0089580E008951F927E
S11306300F920FB60F9211242F933F934F935F9312
S11306406F937F938F939F93AF93BF93EF93FF9396
S1130650E0916400F0916500309709F00995FF91ED
S1130660EF91BF91AF919F918F917F916F915F9126
S11306704F913F912F910F900FBE0F901F9018959F
S11306801F920F920FB60F9211242F933F934F9303
S11306905F936F937F938F939F93AF93BF93EF93E6
S11306A0FF938091640090916500892B29F0E0917B
S11306B06200F09163000995FF91EF91BF91AF91B2
S11306C09F918F917F916F915F914F913F912F9166
S11306D00F900FBE0F901F9018951F920F920FB698
S11306E00F9211242F933F934F935F936F937F93B4
S11306F08F939F93AF93BF93EF93FF938091640085
S113070090916500892B29F0E0916000F0916100DF
S11307100995FF91EF91BF91AF919F918F917F9137
S11307206F915F914F913F912F910F900FBE0F905A
S11307301F9018950E94E8040E94710583B78F7B6F
S113074083BF83B7877F83BF62BF83B7816083BF63
S113075083B78D7F83BF83B7846083BF08B600FEF1
S1130760FDCF13BE12BE88B7816088BF0895813063
S1130770F1F028F0823099F0833049F020C085B53B
S11307808F7B85BD85B5877F85BD84E0089585B55C
S1130790806485BD85B5877F85BD84E0089585B572
S11307A08F7B85BD85B5886085BD84E0089585B55A
S11307B0806485BD85B5886085BD84E0089581E049
S11307C0089590E08730910508F052C0FC01E65D81
S11307D0FF4F0C949F0685B5816085BD85B58D7FDF
S11307E085BD85B58B7F85BD84E0089585B5826020
S11307F085BD85B58E7F85BD85B58B7F85BD84E040
S1130800089585B5816085BD85B5826085BD85B552
S11308108B7F85BD84E0089585B5846085BD85B5ED
S11308208D7F85BD85B58E7F85BD84E0089585B5B2
S1130830816085BD85B58D7F85BD85B5846085BDA9
S113084084E0089585B5846085BD85B58E7F85BDBA
S113085085B5826085BD84E0089585B5816085BDD8
S113086085B5826085BD85B5846085BD84E00895C5
S113087080E00895789489B7806489BF80E00E94FD
S1130880B70314BC80E00E94E10308951F920F9205
S11308900FB60F9211242F933F938F939F938091C0
S11308A0660090916700209168003091690082177A
S11308B0930734F40196909367008093660012C006
S11308C08217930779F41092670010926600809162
S11308D06A00843020F48F5F80936A0003C081E053
S11308E080936A009F918F913F912F910F900FBE3B
S11308F00F901F9018955058BB27AA270E94930465
S11309000C94E0050E94D20538F00E94D90520F02D
S113091039F49F3F19F426F40C94CF050EF4E095B6
S1130920E7FB0C94A005E92F0E94F10558F3BA17D0
S1130930620773078407950720F079F4A6F50C94F1
S11309402B060EF4E0950B2EBA2FA02D0B01B90146
S113095090010C01CA01A0011124FF27591B99F031
S1130960593F50F4503E68F11A16F040A22F232F3D
S1130970342F4427585FF3CF469537952795A7958D
S1130980F0405395C9F77EF41F16BA0B620B730B34
S1130990840BBAF09150A1F0FF0FBB1F661F771FA5
S11309A0881FC2F70EC0BA0F621F731F841F48F45A
S11309B0879577956795B795F7959E3F08F0B0CFE3
S11309C09395880F08F09927EE0F979587950895CA
S11309D00E94130690F09F3748F4911116F40C947A
S11309E02C0660E070E080E89FE3089526F01B1673
S11309F0611D711D811D0C94A6050C94C1050E94F6
S1130A0013050C94E0050E94D90558F00E94D20504
S1130A1040F029F45F3F29F00C94A00551110C9487
S1130A202C060C94CF050E94F10568F39923B1F3C9
S1130A30552391F3951B550BBB27AA276217730700
S1130A40840738F09F5F5F4F220F331F441FAA1F94
S1130A50A9F335D00E2E3AF0E0E832D09150504050
S1130A60E695001CCAF72BD0FE2F29D0660F771FFE
S1130A70881FBB1F261737074807AB07B0E809F0E4
S1130A80BB0B802DBF01FF2793585F4F3AF09E3F69
S1130A90510578F00C94A0050C942C065F3FE4F308
S1130AA0983ED4F3869577956795B795F7959F5FAC
S1130AB0C9F7880F911D9695879597F90895E1E0F8
S1130AC0660F771F881FBB1F621773078407BA0757
S1130AD020F0621B730B840BBA0BEE1F88F7E095B2
S1130AE008950E94F90588F09F5798F0B92F992727
S1130AF0B751B0F0E1F0660F771F881F991F1AF005
S1130B00BA95C9F714C0B13091F00E942B06B1E038
S1130B1008950C942B06672F782F8827B85F39F037
S1130B20B93FCCF3869577956795B395D9F73EF49D
S1130B3090958095709561957F4F8F4F9F4F089545
S1130B4097F99F6780E870E060E00895882371F466
S1130B50772321F09850872B762F07C0662311F452
S1130B6099270DC09051862B70E060E02AF09A9589
S1130B70660F771F881FDAF7880F9695879597F980
S1130B8008959F3F31F0915020F4879577956795AC
S1130B90B795880F911D9695879597F908959FEFBE
S1130BA080EC089500240A94161617061806090600
S1130BB0089500240A9412161306140605060895CF
S1130BC0092E0394000C11F4882352F0BB0F40F457
S1130BD0BF2B11F460FF04C06F5F7F4F8F4F9F4F97
S1130BE0089557FD9058440F551F59F05F3F71F019
S1130BF04795880F97FB991F61F09F3F79F0879580
S1130C000895121613061406551FF2CF4695F1DF08
S1130C1008C0161617061806991FF1CF8695710598
S1130C206105089408950E94F905A0F0BEE7B9177C
S1130C3088F4BB279F3860F41616B11D672F782FF0
S1130C408827985FF7CF869577956795B11D93951B
S1130C509639C8F30895E894BB2766277727CB0114
S1130C6097F908950E9445060C94E0050E94D20568
S1130C7038F00E94D90520F0952311F00C94A005BA
S1130C800C94CF0511240C942C060E94F10570F3EA
S1130C90959FC1F3950F50E0551F629FF001729F1D
S1130CA0BB27F00DB11D639FAA27F00DB11DAA1F2C
S1130CB0649F6627B00DA11D661F829F2227B00D79
S1130CC0A11D621F739FB00DA11D621F839FA00D04
S1130CD0611D221F749F3327A00D611D231F849F54
S1130CE0600D211D822F762F6A2F11249F575040AB
S1130CF09AF0F1F088234AF0EE0FFF1FBB1F661F26
S1130D00771F881F91505040A9F79E3F510580F0EE
S1130D100C94A0050C942C065F3FE4F3983ED4F3A6
S1130D20869577956795B795F795E7959F5FC1F792
S1130D30FE2B880F911D9695879597F90895EE0FD0
S1110D40FF1F0590F491E02D0994F894FFCF65
S9030000FC
